:100000000C94340018950000189500001895000015
:10001000189500001895000018950000189500002C
:10002000189500001895000018950000189500001C
:10003000189500001895000018950000189500000C
:100040000C942501189500000C9498001895000058
:1000500018950000189500001895000018950000EC
:1000600018950000189500008FEF8DBFC0EBE8E2F7
:100070004E2E88E08EBFD8E0F8E05F2EA89584B7BA
:10008000082E877F84BF88E1992780936000909332
:100090006000EEEFF7E0A0E0B1E088278D933197A4
:1000A000E9F787E68093C40080E08093C50088E18B
:1000B0008093C1006624209A229A2A9A5298399AEB
:1000C00085E085BD80E084BD70916E0071607093A5
:1000D0006E0085E085BD7091C10070687093C100AD
:1000E0000E945510789489E080933302A3ECB2E02B
:1000F000E6E5F6E20E94D010E3ECF2E00E945A122C
:10010000EAE5F6E20E941E130E94C812EDE0F0E05C
:10011000A7ECB2E00E94CB11E7ECF2E00E9465127E
:10012000A0ECB2E0EDE0FF270E94CB110C94C90EC9
:100130000F921F922F923F924F925F927F92AF92B7
:10014000BF920F931F932F933F934F935F936F93A0
:100150007F938F939F93AF93BF93CF93DF93EF934F
:10016000FF938FB78F93AAE2B4E08091C6008C937F
:1001700084E2482F00912A04041711F00C94CB005C
:100180007091D20270647093D202ADE9B3E0882717
:100190008C930C9408010D3011F00C94F000A2ED3A
:1001A000B2E08C9186FB16F00C94EE007091D202B6
:1001B0007F7B7093D20280E0ADE9B3E00E94C00F74
:1001C0008D9388278C93EDE9F3E0ABE2B4E00E94D5
:1001D000C6117091D20270627093D2020C94080121
:1001E0000F3118F011F00C94F7000C940801A2EDF7
:1001F000B2E08C9186FB16F00C940801AAE2B4E000
:100200008C91ADE9B3E00E94C00F8D9388278C9349
:100210008F918FBFFF91EF91DF91CF91BF91AF9100
:100220009F918F917F916F915F914F913F912F910E
:100230001F910F91BF90AF907F905F904F903F9034
:100240002F901F900F90189508950F921F922F9244
:100250003F924F925F927F92AF92BF920F931F9304
:100260002F933F934F935F936F937F938F939F93BE
:10027000AF93BF93CF93DF93EF93FF938FB78F939A
:1002800074E676BDABECB2E08C918F5F8C93ABECF7
:10029000B2E00C9148E00E9402128C930091CB02D4
:1002A000003011F00C949201ACECB2E00C9140E201
:1002B0000E9402128C93EEE4FDE1A1EDB2E08C917C
:1002C0009927ADECB2E00E94D8108091CC02ADEC41
:1002D000B2E00E94FD100E94F3100C900822689476
:1002E00009F4E894A2EDB2E08C9187F98C93A2ED29
:1002F000B2E08C9187FB882780F9809580FBA2ED86
:10030000B2E08C9187F98C93A2EDB2E08C9187FBDF
:10031000A5E2B0E08C9180F98C93ACECB2E08C91CA
:100320008F5F8C93A3EDB2E08C918F5F8C93A3EDE4
:10033000B2E00C9144E60E9402128C930091D30229
:10034000003011F00C94AD017091D4027160709383
:10035000D402ADE0B1E00E94730F8F918FBFFF9187
:10036000EF91DF91CF91BF91AF919F918F917F914D
:100370006F915F914F913F912F911F910F91BF907E
:10038000AF907F905F904F903F902F901F900F9075
:1003900018952898A0E1B8E0EEE5F6E20E94BA10C0
:1003A0000E94C70F0E94D60FA0E1B8E0E2E7F6E294
:1003B0000E94BA100E94C70F0E94D60FA0E1B8E0B9
:1003C000EAE7F6E20E94BA100E94C70F0E94D60F19
:1003D00081E08093D10281E08093000100910001CF
:1003E000013018F011F00C947902E0E0F1E0A190F6
:1003F000BB24E0E0F0E0AA0CBB1CAA0CBB1CEA0D7D
:10040000FB1DA0E0B1E0AD90BB24AAE2B2E0AA0CD3
:10041000BB1CAA0CBB1CAA0DBB1D94E00E94FB11C7
:10042000E0E0F1E0A190BB24E4E0F0E0AA0CBB1C0A
:10043000AA0CBB1CEA0DFB1DA0E0B1E0AD90BB24F3
:10044000AEE2B2E0AA0CBB1CAA0CBB1CAA0DBB1DE1
:1004500094E00E94FB11E4E8F6E20E94CF0FE0E096
:10046000F1E0A0E1B8E00E9426110E94C70FE8E881
:10047000F6E20E94CF0FE0E0F1E0A190BB24EAE2B7
:10048000F2E0AA0CBB1CAA0CBB1CEA0DFB1DA0E1F0
:10049000B8E00E9419110E94C70FEAE8F6E20E9434
:1004A000CF0FE0E0F1E0A0E1B8E00E9426110E9449
:1004B000C70FE8E8F6E20E94CF0FE0E0F1E0A1907C
:1004C000BB24EEE2F2E0AA0CBB1CAA0CBB1CEA0D9A
:1004D000FB1DA0E1B8E00E9419110E94C70F0E9405
:1004E000D60FA0E0B1E08C918F5F8C9310F40C9448
:1004F000EE010895E0E9F6E20E94CF0FABE2B4E02E
:100500000E94C90F0E94D60F81E0EBE2F4E006E002
:100510000A93A5EFB1E00E94D111EBE2F4E09CE276
:1005200000E236E0A8EFB2E00E942E12A6EDB2E0A3
:100530002C930091D602003018F011F00C94A20216
:100540000C94D20281E0809300014091D602009188
:100550000001041718F011F00C94D202E0E0F1E071
:10056000A0E1B8E00E9426110E94C70FE2E9F6E27E
:100570000E94CF0FA0E0B1E00D91112741E250E0C1
:100580000E948D10A7EDB2E0A00FB11F0E94C90F0D
:100590000E94D60FA0E0B1E08C918F5F8C9310F495
:1005A0000C94A502A8EFB2E00E941212082F0630A8
:1005B00011F00C94B105E8EFF2E0A3E1B1E00E9484
:1005C000C611E3E1F1E0A3E1B1E00E94E7108FEF93
:1005D0008093E301A3E1B1E0E4E9F6E20E9418129E
:1005E00011F00C942A0380E08093E301AAE1B1E0CA
:1005F000ECE9F6E20E94BA10A5EFB1E0EEE5F6E212
:100600000E94BA10E5EFF1E0AAE1B1E00E94C00F4C
:100610000E94C611AAE1B1E00E94C00FE0EBF6E231
:100620000E94BA10A5EFB1E0EAE7F6E20E94BA1024
:10063000E5EFF1E0AAE1B1E00E94C00F0E94C6110F
:10064000AAE1B1E00E94C00FEEEBF6E20E94BA1000
:100650000C94AF05E0ECF6E20E94181211F00C9435
:1006600065030091D602023011F00C946003A9E1F9
:10067000B3E00E946B11A0E0B1E00C930091000187
:10068000013110F00C945B0380E08093E301AAE158
:10069000B1E0E8ECF6E20E94BA10E0E0F1E0AAE195
:1006A000B1E00E94C00F0E9426118091000180934A
:1006B000D1020C945E0385E08093E3010C94630304
:1006C00084E08093E3010C94AF05E0EEF6E20E9433
:1006D000181211F00C94F6030091D602033011F0B9
:1006E0000C94F103A9E1B3E00E946B11A6EBB2E018
:1006F0000C930091B602003080E010F009F081E028
:100700008F930091B602023081E008F080E09F9163
:100710008923882311F40C94EC03AAE3B3E00E942C
:100720006B11A5E0B1E00D931D932D933D93A5E0D2
:10073000B1E00D911D912D913C91A6EBB2E0AD90F1
:10074000BB24AAE2B2E0AA0CBB1CAA0CBB1CAA0DDB
:10075000BB1D0D931D932D933C93E6EBF2E0A1900E
:10076000BB24E0E0F0E0AA0CBB1CAA0CBB1CEA0D09
:10077000FB1DA5E0B1E094E07BE70E94EA1180E078
:100780008093E301AAE1B1E0E8EEF6E20E94BA103C
:10079000E6EBF2E0AAE1B1E00E94C00F0E94261150
:1007A000AAE1B1E00E94C00FE2E9F6E20E94BA10AD
:1007B000E6EBF2E0A190BB24EAE2F2E0AA0CBB1C5B
:1007C000AA0CBB1CEA0DFB1DAAE1B1E00E94C00F00
:1007D0000E9419110C94EF0383E08093E3010C94C1
:1007E000F40384E08093E3010C94AF05EEEFF6E2AE
:1007F0000E94181211F00C9487040091D602033065
:1008000011F00C948204A9E1B3E00E946B11A6EBF5
:10081000B2E00C930091B602003080E010F009F0D5
:1008200081E08F930091B602023081E008F080E011
:100830009F918923882311F40C947D04AAE3B3E0EB
:100840000E946B11A5E0B1E00D931D932D933D9394
:10085000A5E0B1E00D911D912D913C91A6EBB2E088
:10086000AD90BB24AEE2B2E0AA0CBB1CAA0CBB1C30
:10087000AA0DBB1D0D931D932D933C93E6EBF2E067
:10088000A190BB24E4E0F0E0AA0CBB1CAA0CBB1CAA
:10089000EA0DFB1DA5E0B1E094E07BE70E94EA11C0
:1008A00080E08093E301AAE1B1E0E8EEF6E20E9485
:1008B000BA10E6EBF2E0AAE1B1E00E94C00F0E949C
:1008C0002611AAE1B1E00E94C00FE2E9F6E20E941F
:1008D000BA10E6EBF2E0A190BB24EEE2F2E0AA0C43
:1008E000BB1CAA0CBB1CEA0DFB1DAAE1B1E00E94D7
:1008F000C00F0E9419110C94800483E08093E301DF
:100900000C94850484E08093E3010C94AF05E6E049
:10091000F7E20E94181211F00C94E6040091D6023E
:10092000023011F00C94E104A9E1B3E00E946B11D4
:10093000A6EBB2E00C930091B602003080E010F01C
:1009400009F081E08F930091B602023081E008F057
:1009500080E09F918923882311F40C94DC04AAE1A0
:10096000B1E0EEE0F7E20E94BA10E6EBF2E0AAE1B5
:10097000B1E00E94C00F0E942611AAE1B1E00E94DE
:10098000C00FE2E9F6E20E94BA10E6EBF2E0A190B5
:10099000BB24EAE2F2E0AA0CBB1CAA0CBB1CEA0DC9
:1009A000FB1DAAE1B1E00E94C00F0E94191180E076
:1009B0008093E3010C94DF0483E08093E3010C94C3
:1009C000E40484E08093E3010C94AF05E6E1F7E2F0
:1009D0000E94181211F00C9445050091D6020230C5
:1009E00011F00C944005A9E1B3E00E946B11A6EB55
:1009F000B2E00C930091B602003080E010F009F0F4
:100A000081E08F930091B602023081E008F080E02F
:100A10009F918923882311F40C943B05AAE1B1E04E
:100A2000EEE1F7E20E94BA10E6EBF2E0AAE1B1E0F3
:100A30000E94C00F0E942611AAE1B1E00E94C00FDF
:100A4000E2E9F6E20E94BA10E6EBF2E0A190BB24E4
:100A5000EEE2F2E0AA0CBB1CAA0CBB1CEA0DFB1DCB
:100A6000AAE1B1E00E94C00F0E94191180E08093BA
:100A7000E3010C943E0583E08093E3010C9443056D
:100A800084E08093E3010C94AF05EAE2F7E20E9470
:100A9000181211F00C94AC050091D602023011F03E
:100AA0000C94A705A9E1B3E00E946B11A6EBB2E09C
:100AB0000C930091B602003080E010F009F081E064
:100AC0008F930091B602023081E008F080E09F91A0
:100AD0008923882311F40C94A20580E08093E3011C
:100AE0000091B60241E0041BA0E0B1E00C938091BC
:100AF0000001A2E3B2E00E94FD100E94F3109C915D
:100B0000982B9C93AAE1B1E0E2E3F7E20E94BA10CD
:100B1000E6EBF2E0AAE1B1E00E94C00F0E942611CC
:100B2000AAE1B1E00E94C00FE6E4F7E20E94BA1029
:100B3000AAE1B1E00E94C00FE2E3F2E00E94B3112B
:100B40000C94A50583E08093E3010C94AA0584E04E
:100B50008093E3010C94AF0581E08093E3010C9452
:100B6000B40582E08093E3010091E301003018F0C6
:100B700011F00C94BD050C94C905E4E7FCE1A3EE6B
:100B8000B1E08C9199270E94DF10AAE1B1E00E94A8
:100B9000BA10AAE1B1E00E94C90F0E94D60F0895D1
:100BA0002A98A881B9818C918F778C9391E0A88144
:100BB000B9810E944B1091E0AA81BB810E94401034
:100BC0002A9A08952A98AA81BB817C9170687C93A7
:100BD00091E0AA81BB810E944B1091E0A881B9816C
:100BE0000E944B102A9A089581E00E94871081E0AC
:100BF0000E94871080E0AA81BB818C93AE81BF8167
:100C00008C91A881B9818C93AE81BF810C91AC810C
:100C1000BD814C91040FAC81BD810C93AC81BD8131
:100C20008C9181508C932A9891E0AA81BB810E947B
:100C30004B10A881B9818C91AA81BB818C93AC8126
:100C4000BD814C91AA81BB810C91041718F011F061
:100C50000C943D0691E0AA81BB81AD90BB24A4E336
:100C6000B2E0AA0DBB1D0E944010AA81BB818C91ED
:100C70008F5F8C9310F40C941F062A9A82E0481A16
:100C800080E0580A2496089581E00E94871081E050
:100C90000E94871080E0AA81BB818C93AE81BF81C6
:100CA0000C91003011F00C945B06AC81BD818C91ED
:100CB000A881B9818C93AE81BF810C91003018F06E
:100CC00011F00C9465060C947406AE81BF810C91F2
:100CD000AC81BD814C91040FA881B9810C93A8818E
:100CE000B9818C9181508C93AA81BB817C91706871
:100CF0007C932A9891E0AA81BB810E944B10AE811F
:100D0000BF818C91AA81BB818C93A881B9814C91C0
:100D1000AA81BB810C91041718F011F00C94A30662
:100D200091E0AA81BB81AD90BB24A5E7B2E0AA0DFA
:100D3000BB1D0E944B10AA81BB818C918F5F8C934D
:100D400010F40C9485062A9A82E0481A80E0580A2A
:100D500024960895E8E4F7E20E94CF0F0E94D60F90
:100D600088E0D2018C9381E00E9487100E94FC07EA
:100D7000229681E00E94831080E991E00E946C102D
:100D800081E0D2018C9381E00E94871088E8D20133
:100D90008C9381E00E9487100E94E205249682E0F5
:100DA0000E948310EAE5F7E20E94CF0F0E94D60F5F
:100DB000089582E2D2018C9381E00E9487108AE03C
:100DC000D2018C9381E00E9487100E94E205249654
:100DD00082E00E9483108DE0D2018C9381E00E941A
:100DE0008710D201BA93AA938FE0D2018C9381E04D
:100DF0000E9487100E94D005249681E00E948310F3
:100E000081E00E9487100E94E205249682E00E9401
:100E100083108DE8D2018C9381E00E9487100E949C
:100E2000FC07229681E00E948310089581E00E94D1
:100E3000871081E00E94871081E00E94871081E086
:100E40000E94871082E1D2018C9381E00E9487107A
:100E500080E4D2018C9381E00E9487100E94E20519
:100E6000249682E00E948310AE81BF81BA93AA9338
:100E700082E1D2018C9381E00E9487100E94D0050C
:100E8000249681E00E948310E8E6F7E20E94CF0FEB
:100E9000D201EE81FF810E94B311D2010E94C90FDD
:100EA0000E94D60FAE81BF810C9105FB16F00C9409
:100EB0007D07E4E7F7E20E94CF0F0E94D60FEE8194
:100EC000FF81A0E1B8E00E9426110E94C70F0E9496
:100ED000D60F82E1D2018C9381E00E94871080E2DC
:100EE000D2018C9381E00E9487100E94E205249633
:100EF00082E00E9483100C94F607AC81BD81BA9306
:100F0000AA9380E1D2018C9381E00E9487100E9415
:100F1000D005249681E00E948310AA81BB81BA93F8
:100F2000AA9383E1D2018C9381E00E9487100E94F2
:100F3000D005249681E00E948310E4E9F7E20E9444
:100F4000CF0FEC81FD81A0E1B8E00E9426110E9444
:100F5000C70FEEEAF7E20E94CF0FEA81FB81A0E122
:100F6000B8E00E9426110E94C70F0E94D60F8DE0A4
:100F7000D2018C9381E00E948710AE81BF818C9159
:100F8000D2018C9381E00E9487100E94E205249692
:100F900082E00E94831080E0A881B9818C93AA81AD
:100FA000BB814C91A881B9810C91041710F00C946D
:100FB000F607A881B981AD90BB24A4E3B2E0AA0DE5
:100FC000BB1DBA93AA9380E0D2018C9381E00E946A
:100FD00087100E94D005249681E00E948310A8818A
:100FE000B9818C918F5F8C930C94CF0784E0481A61
:100FF00080E0580A2896089540913302A881B9816B
:101000000C91041711F00C9407080C94EA08A881BD
:10101000B9810C910D3811F00C94530889E0D2017C
:101020008C9381E00E94871080E0D2018C9381E054
:101030000E9487100E94E205249682E00E9483109D
:101040008CE0D2018C9381E00E94871083E2D20170
:101050008C9381E00E9487100E94E205249682E032
:101060000E94831081E0D2018C9381E00E9487105E
:10107000AA81BB818C91D2018C9381E00E94871060
:101080000E94E205249682E00E948310A881B98123
:101090008C9180933302EAECF7E20E94CF0F0E941A
:1010A000D60F0C94E4080B3811F00C949C088CE0DB
:1010B000D2018C9381E00E94871080E2D2018C9350
:1010C00081E00E9487100E94E205249682E00E943F
:1010D000831089E0D2018C9381E00E94871089EF10
:1010E000D2018C9381E00E9487100E94E205249631
:1010F00082E00E94831081E0D2018C9381E00E9403
:101100008710AA81BB818C91D2018C9381E00E94CF
:1011100087100E94E205249682E00E948310A88135
:10112000B9818C9180933302EEEEF7E20E94CF0FEB
:101130000E94D60F0C94E408083011F00C94C108FA
:1011400081E0D2018C9381E00E948710AA81BB814B
:101150008C91D2018C9381E00E9487100E94E2055D
:10116000249682E00E948310A881B9818C9180939B
:101170003302E8E0F8E20E94CF0F0E94D60F0C94F1
:10118000E408093011F00C94E40881E0D2018C935A
:1011900081E00E948710AA81BB818C91D2018C933F
:1011A00081E00E9487100E94E205249682E00E945E
:1011B0008310A881B9818C9180933302E0E2F8E238
:1011C0000E94CF0F0E94D60FEAE3F8E20E94CF0FF1
:1011D0000E94D60F089581E00E94871080E0A881C8
:1011E000B9818C9389E0D2018C9381E00E948710B1
:1011F0000E94FC07229681E00E9483108EE0D201BB
:101200008C9381E00E94871080E0D2018C9381E072
:101210000E9487100E94E205249682E00E948310BB
:101220008DE0D2018C9381E00E94871080E0D20192
:101230008C9381E00E9487100E94E205249682E050
:101240000E94831081E0D2018C9381E00E9487107C
:101250008BE0D2018C9381E00E9487100E944406AB
:10126000249682E00E9483108BE8D2018C9381E067
:101270000E9487100E94FC07229681E00E94831042
:101280004A990C9445090C944009ECE4F8E20E9458
:10129000CF0F0E94D60F82E1D2018C9381E00E9491
:1012A000871088E0D2018C9381E00E9487100E9411
:1012B000E205249682E00E94831081E0481A80E0D3
:1012C000580A2296089582E00E94871082E00E94C8
:1012D000871081E00E94871081E00E94871080E0E3
:1012E00090E0AC81BD818D939C9380E090E0AE81D5
:1012F000BF818D939C9380E0AA81BB818C93AA814E
:10130000BB810C91053010F00C94B709A881B9810C
:10131000BA93AA938BE1D2018C9381E00E9487104B
:101320000E94D005249681E00E9483100CE51FEFF7
:10133000A881B9814D915527040F151FAE81BF813A
:101340000D931C93AC81BD810D911C91AE81BF8129
:101350004D915C91040F151FAC81BD810D931C93C1
:10136000AA81BB818C918F5F8C930C947F09AC8197
:10137000BD810D911C9145E050E00E94860FAC812B
:10138000BD814D935C93AC81BD818D919C91A8856D
:10139000B9858D939C9386E0481A80E0580A289678
:1013A000089581E00E948710A881B981BA93AA9319
:1013B00089E1D2018C9381E00E9487100E94D005C0
:1013C000249681E00E948310A881B9810C9107FBCB
:1013D00016F00C94080AA881B9818C9180958C93A1
:1013E000A881B9818C918F5F8C9392E0A881B9819B
:1013F0000E94C010A881B9810D9111274FEF5FEFB6
:101400000E948D10AA81BB810D931C930C94150A28
:1014100092E0A881B9810E94C010A881B9818C9105
:10142000AA81BB818D9388278C9381E0481A80E044
:10143000580A2296089581E00E94871082E00E9457
:10144000871082E00E948710A881B981BA93AA937D
:101450000E94D1092296A881B9810D911C9100307A
:1014600050E015071CF011F00C94380A0C94740A23
:10147000AC81BD81BA93AA938AE1D2018C9381E0B9
:101480000E9487100E94D005249681E00E9483105C
:10149000ECE5F8E20E94CF0FEC81FD81A0E1B8E01D
:1014A0000E9426110E94C70F0E94D60FAC81BD81F9
:1014B0008C91AA81BB818D9388278C930CE51FEFBB
:1014C000AA81BB814D915C91040F151FAA81BB813C
:1014D0000D931C93AA81BB818D919C91AE81BF819C
:1014E0008D939C930C94B20AAC81BD81BA93AA935C
:1014F0008AE1D2018C9381E00E9487100E94D0057E
:10150000249681E00E948310A881B9810D911C91DD
:1015100044E050E00E94860FA881B9814D935C930E
:10152000AC81BD810D911127A881B9814D915C914C
:10153000040F151FA881B9810D931C930CE51FEFB3
:10154000A881B9814D915C91040F151FAA81BB81BF
:101550000D931C93AA81BB818D919C91AE81BF811B
:101560008D939C9385E0481A80E0580A269608954A
:1015700081E00E94871084E00E94871084E00E942E
:101580008710AC81BD81BA93AA9388E2D2018C9373
:1015900081E00E9487100E94D005249681E00E947D
:1015A0008310EAE6F8E20E94CF0FEC81FD81A0E112
:1015B000B8E00E949A110E94C70FAC81BD81BA9316
:1015C000AA9389E2D2018C9381E00E9487100E9445
:1015D000D005249681E00E948310EC81FD81A0E17A
:1015E000B8E00E949A110E94C70FAC81BD81BA93E6
:1015F000AA938AE2D2018C9381E00E9487100E9414
:10160000D005249681E00E948310EC81FD81A0E149
:10161000B8E00E949A110E94C70F0E94D60FAC81B9
:10162000BD81BA93AA9388E2D2018C9381E00E9493
:1016300087100E94D005249681E00E948310AC811F
:10164000BD810C9103FB16F00C94B90BAC81BD81EC
:101650000C9111272227332740E050E061E070E031
:101660000E949710AA81BB810D931D932D933D93EA
:10167000AC81BD81BA93AA9389E2D2018C9381E0B7
:101680000E9487100E94D005249681E00E9483105A
:10169000AC81BD810C9111272227332740E051E016
:1016A00060E070E00E949710A881B9810D931D93AE
:1016B0002D933D93AA81BB810D911D912D913C915C
:1016C000A881B9814D915D916D917C910E9403112A
:1016D000AA81BB810D931D932D933D93AC81BD8158
:1016E000BA93AA938AE2D2018C9381E00E94871078
:1016F0000E94D005249681E00E948310AA81BB81BC
:101700000D911D912D913C91AC81BD814C9155273E
:10171000662777270E940311AA81BB810D931D9331
:101720002D933D93AA81BB8144E00E946B0FAA8157
:10173000BB810D911D912D913C9141E050E060E005
:1017400070E00E940311AA81BB810D931D932D931C
:101750003D93E4E7F8E20E94CF0FEA81FB81A0E12C
:10176000B8E00E9419110E94C70F0E94D60F0C9476
:10177000330CAC81BD810C9111272227332740E027
:1017800050E061E070E00E949710AA81BB810D9348
:101790001D932D933D93AC81BD81BA93AA9389E2A9
:1017A000D2018C9381E00E9487100E94D00524967C
:1017B00081E00E948310AC81BD810C91112722270A
:1017C000332740E051E060E070E00E949710A8816C
:1017D000B9810D931D932D933D93AA81BB810D91EA
:1017E0001D912D913C91A881B9814D915D916D9193
:1017F0007C910E940311AA81BB810D931D932D93AF
:101800003D93AC81BD81BA93AA938AE2D2018C93B5
:1018100081E00E9487100E94D005249681E00E94FA
:101820008310AA81BB810D911D912D913C91AC81BA
:10183000BD814C915527662777270E940311AA8105
:10184000BB810D931D932D933D93E2E8F8E20E9436
:10185000CF0FEA81FB81A0E1B8E00E9419110E943C
:10186000C70F0E94D60FAA81BB810D911D912D91AA
:101870003C9140E050E060E071E00E949710AA8146
:10188000BB810D931D932D933D93AA81BB810D9137
:101890001D912D913C9140E058E468EE71E00E946A
:1018A000E90FAA81BB814D935D936D937D93E0E930
:1018B000F8E20E94CF0FEA81FB81A0E1B8E00E942C
:1018C00019110E94C70F0E94D60FAA81BB810D91EA
:1018D0001D912D913C91AE81BF810D931D932D9350
:1018E0003C9389E0481A80E0580A2696089541986A
:1018F00084E190E00E946C10419A84E190E00E94A3
:101900006C1008950E94770C0E94AA0686E0D2010E
:101910008C9381E00E9487108091C202D2018C9347
:1019200081E00E9487100E94E205249682E00E94D6
:10193000831087E0D2018C9381E00E948710809110
:10194000C102D2018C9381E00E9487100E94E205BF
:10195000249682E00E94831088E0D2018C9381E07B
:101960000E9487108091C002D2018C9381E00E9476
:1019700087100E94E205249682E00E94831089E08D
:10198000D2018C9381E00E94871089EFD2018C9361
:1019900081E00E9487100E94E205249682E00E9466
:1019A00083108BE0D2018C9381E00E9487108BE042
:1019B000D2018C9381E00E9487100E94E205249658
:1019C00082E00E9483108CE0D2018C9381E00E941F
:1019D000871083E2D2018C9381E00E9487100E94DD
:1019E000E205249682E00E9483108DE1D2018C935F
:1019F00081E00E94871082E7D2018C9381E00E94EF
:101A000087100E94E205249682E00E9483108EE1F6
:101A1000D2018C9381E00E94871083ECD2018C93D9
:101A200081E00E9487100E94E205249682E00E94D5
:101A3000831081E3D2018C9381E00E94871083ECB4
:101A4000D2018C9381E00E9487100E94E2052496C7
:101A500082E00E94831087E3D2018C9381E00E9490
:101A600087108AE0D2018C9381E00E9487100E9447
:101A7000E205249682E00E9483108FE1D2018C93CC
:101A800081E00E9487108FEFD2018C9381E00E9449
:101A900087100E94E205249682E00E94831080E273
:101AA000D2018C9381E00E94871080E0D2018C9358
:101AB00081E00E9487100E94E205249682E00E9445
:101AC000831081E2D2018C9381E00E9487108CE028
:101AD000D2018C9381E00E9487100E94E205249637
:101AE00082E00E948310A7EBB2E0BA93AA9386E249
:101AF000D2018C9381E00E9487100E94D005249629
:101B000081E00E948310EAE9F8E20E94CF0FD2013F
:101B1000E7EBF2E00E94B311D2010E94C90F0E94CC
:101B2000D60FA7EBB2E0BA93AA938DE1D2018C93C2
:101B300081E00E9487100E94D005249681E00E94D7
:101B40008310E2EAF8E20E94CF0FD201E7EBF2E065
:101B50000E94B311D2010E94C90F0E94D60FA7EBB9
:101B6000B2E0BA93AA938EE1D2018C9381E00E94F5
:101B700087100E94D005249681E00E948310EEEA2F
:101B8000F8E20E94CF0FD201E7EBF2E00E94B3111E
:101B9000D2010E94C90F0E94D60FA7EBB2E0BA9300
:101BA000AA9386E0D2018C9381E00E9487100E9464
:101BB000D005249681E00E948310EAEBF8E20E94AF
:101BC000CF0FE7EBF2E0A0E1B8E00E949A110E948B
:101BD000C70F0E94D60FA7EBB2E0BA93AA9387E093
:101BE000D2018C9381E00E9487100E94D005249638
:101BF00081E00E948310E4ECF8E20E94CF0FE7EB53
:101C0000F2E0A0E1B8E00E949A110E94C70F0E9482
:101C1000D60FA7EBB2E0BA93AA9388E0D2018C93D7
:101C200081E00E9487100E94D005249681E00E94E6
:101C30008310EEECF8E20E94CF0FE7EBF2E0A0E1B8
:101C4000B8E00E949A110E94C70F0E94D60F89E047
:101C5000D2018C9381E00E9487100E94FC0722969B
:101C600081E00E948310E8EDF8E20E94CF0F0E940D
:101C7000D60F08954F4B00436F6D616E646F206EF9
:101C80006F207265636F6E6F6369646F004C6F6E77
:101C9000676974756420636F6D616E646F206E6F29
:101CA0002076616C696461004E756D65726F2064A9
:101CB00065207573756172696F206E6F2076616C37
:101CC00069646F004E756D65726F20646520706188
:101CD00072616D6574726F7320696E76616C696490
:101CE0006F004572726F72206C6F6E6769747564F5
:101CF00020706172616D6574726F2031004572727F
:101D00006F72206C6F6E67697475642070617261A8
:101D10006D6574726F203200506172616D6574720E
:101D20006F206E6F2076616C69646F004552524F70
:101D30005238004552524F522053442E20496E745F
:101D4000656E7465206465206E7565766F000000B1
:101D500000000300000033000000330300003333B1
:101D600000003333030033C00C00FF0FFF0F555545
:101D7000555533333333777777770C00FCFFCC003E
:101D8000FCFFCC0CFCFFCCCCFCFF0C00FCFFF0FFFC
:101D9000FFFF0E94C9010E94820CE3E0F0E00E9474
:101DA000E00F0E94D906A2EDB2E08C9185FB16F0FF
:101DB0000C94EB0E7091D2027F7D7093D202E8EE0C
:101DC000F8E20E94CF0FABE2B4E00E94C90F0E947C
:101DD000D60F0E947A02A7EBB2E0BA93AA9382E1EF
:101DE000D2018C9381E00E9487100E94D005249636
:101DF00081E00E948310A7EBB2E00C9104FB16F087
:101E00000C94290F82E1D2018C9381E00E9487100B
:101E100080E1D2018C9381E00E9487100E94E2054C
:101E2000249682E00E948310A8EBB2E0BA93AA93B2
:101E30000E9463092296EEEEF8E20E94CF0FE8EBD3
:101E4000F2E0A0E1B8E00E941F110E94C70F0E94BB
:101E5000D60F4A9B0C94690F0E941607AAEBB2E0BA
:101E6000BA93AA930E94D1092296EEEFF8E20E945B
:101E7000CF0FEAEBF2E0A0E1B8E00E941F110E9450
:101E8000C70F0E94D60FACEBB2E0BA93AA930E94A0
:101E90001B0A2296E4E0F9E20E94CF0FECEBF2E09D
:101EA000A0E1B8E00E941F110E94C70F0E94D60F48
:101EB000AEEBB2E0BA93AA930E94B80A2296E2E18E
:101EC000F9E20E94CF0FA4E3B2E00E94C90F0E9482
:101ED000D60F0C94D30EEA2FFB2F8D918095819312
:101EE0004A95D9F708950D911D912D913C910F5F61
:101EF0001F4F2F4F3F4F3C932E931E930E930895E9
:101F000009D00E948D1000FC10D0089503D01ED07F
:101F100001F8F9CF0024E89457FF02C009D0689473
:101F200000F80BD010F80124089502D009D00895CC
:101F3000509540954F5F5F4F0895E89417FF0895BF
:101F4000009510950F5F1F4F68940895352F242F2B
:101F5000E894452B11F468940895512F402F0027E1
:101F6000112780E1440F551F001F111F021B130B87
:101F7000416018F4020F131F4E7F8A9599F7089558
:101F80008F938D918823E9F711978F910895A0E1A0
:101F9000B8E08D91882311F00CD0FBCF08950E94FA
:101FA000C810802D11F005D0FACF08958DE001D032
:101FB0008AE00090C00005FEFCCF8093C600089523
:101FC00088EE93E089D03197D9F7089500FC05D0C9
:101FD000089530D005D001F8F9CF37D03FD008951B
:101FE000842F952FA62FB72FE894452B462B472BF0
:101FF00011F468940895402F512F622F732F0027FA
:10200000112722273327F0E2440F551F661F771F41
:10201000001F111F221F331F081B190B2A0B3B0B1C
:10202000416028F4080F191F2A1F3B1F4E7FFA95A5
:1020300059F708950024E89477FF02C006D0689409
:1020400000F809D010F80124089512D04F5F5F4FB7
:102050006F4F7F4F0895E89437FF089500951095CE
:10206000209530950F5F1F4F2F4F3F4F6894089575
:10207000409550956095709508953197F1F70895C2
:102080000E945D1080E00E945F108D939A95D1F7B9
:102090000E945E1008950E945D108D910E945F1055
:1020A0009A95D9F70E945E100895259A24982C9A43
:1020B000239A229A82E58CBD0895089508958EBDD5
:1020C00000904D0007FEFCCF8EB50895689462F82D
:1020D0000895E89462F80895EF93FF93EE27E82BB4
:1020E000E92B31F0E0EAFFE03197F1F70197D1F702
:1020F000FF91EF91089501911191219130810895FF
:10210000481A590A0895481A8827580A089599279D
:102110005A924A92480E591E08950F92B801469F4E
:102120008001479F100D569F100D0F9008950F923C
:102130001F922F92C801D901489F80014A9F9001A8
:102140004B9F202C499F100D211D321D5A9F202C82
:10215000589F100D211D321D599F200D311D689F64
:10216000200D311D699F300D789F300D2F901F90ED
:102170000F9008950E94C8100D920020D9F708957D
:10218000903029F08C9186959A95E9F78C93089573
:10219000C89531960020089591E005C092E003C0F3
:1021A00094E001C098E0F4DF0D929A95E1F708956C
:1021B000880F991F880F991FE80FF91FF1CF01961B
:1021C000019721F00E94C810E9F7FACF0895819194
:1021D00004D08D938823D9F70895813618F08B3772
:1021E00008F48F7D089591E0882321F08894991F49
:1021F0008A95E9F7892F90950895883018F01196FF
:102200008850FBCF0895040F151F261F371F089510
:10221000000F111F221F331F089500951095209560
:1022200030950F5F1F4F2F4F3F4F08950191108141
:102230000FC00E947B100EC00E947B1010C0019145
:10224000108117FF05C03FEF2FEF04C00081112759
:102250002227332737FF03C0E0DF8DE28D93CF9233
:10226000DF92EF92AA24BB24CC24DD24EE2440E2AA
:10227000EAE0FF2755E093E38081890F87FD9F7097
:1022800083FD907F891B81935A95A9F7C1DFAA1C12
:10229000BB1CCC1CDD1CEE1C4A9551F7E894EFE00A
:1022A000FF2782910BD0EB30E0F71EF068948A2D67
:1022B00009D04D93EF90DF90CF900895982F82959D
:1022C00001D0892F8F70805D26F0803309F4089546
:1022D00068948D93089500271127222733271DD056
:1022E0008A3328F4803318F005D015D0F9CF0EF4D6
:1022F00094CF089580538F93402F512F622F732FC7
:1023000087DF86DF80DF84DF8F919927080F191F11
:10231000291F391F08958D910895E894FCDF8032BC
:10232000E9F38B32D9F38930C9F38D3211F4689413
:10233000F2CF089541E003C042E001C044E0E40F61
:102340008827F81F8291982F829506D0892F04D074
:102350004A95C1F70C94C3118F708A3008F0895FD9
:10236000805D8D93089541E0E40F8827F81F8291E6
:1023700038E098E1880F991F9D933A95D1F74A95D7
:10238000B1F70C94C31188278D93089581918D9393
:102390008823E1F7089594E081918D939A95E1F770
:1023A000089509919191992359F08A95D9F7319718
:1023B000002331F081918D930A958823C9F7089500
:1023C000E2CFF999FECFE1BDF2BD3196089591E0DB
:1023D00001C092E07B3751F47FB7F894F2DF8D9122
:1023E00080BDFA9AF99A9A95C9F77FBF7727089521
:1023F00091E001C092E0E5DFF89A80B58D939A955F
:10240000D1F70895FF93881BF9E0001FFA9511F4A6
:10241000FF910895881F841B18F4840F8894F5CFCA
:102420000894F3CF8FEF83959D919923E1F7089559
:10243000689401C0E894AF93BF938D9116F0919189
:1024400003C00E94C810902D891718F011F488233A
:10245000A1F7BF91AF910895689401C0E894222735
:10246000102F231709F4089526F40E94C810802D18
:1024700001C08191803081F0891741F070E08D9327
:102480001A9591F7239571E01D93EACF01D0E8CF1B
:10249000703011F077270895772331F4239588273A
:1024A00013958D931A95E9F70895D190E190F190E5
:1024B0000191089521913191419151910895502FA9
:1024C0002D2D3E2D4F2D612F0895EFDF99271127D8
:1024D0008F2D880F80E8F82A802F881F08F41FEFBF
:1024E00041F08F57082F07FD04C0003240F08FEFF6
:1024F00001C08827982FD82EE82EF82E09C08FE12A
:10250000801B082FF694E794D79497950A95D1F7F6
:10251000112351F09095D094E094F09481E0980FBD
:102520008827D81EE81EF81E0F2DFE2CED2CD92E64
:102530000895652F90E8440F551F5927990F479527
:102540006078102F90E8FF0C001F0927990FF7946F
:10255000107800380895FF0C90E89027110F979598
:10256000F794092F08952DEC3CEC4CEC5DE36627C5
:102570000FC09BDFA4DFDD24EE2490E8F92E0FE3EB
:1025800007C098DF05C02227332740E251E46627C1
:10259000552351F1002381F1CCDF71F1162700584A
:1025A00050580894050B18F407FD03C025C007FD1B
:1025B00023C0469537952795F694E794D79422D073
:1025C000FF202AF0DD0CEE1CFF1C015073F09D2D46
:1025D000969548F0DD203AF4EE202AF491E0D90EE9
:1025E0009927E91EF91EB7CF07C09FE7092FF92ADF
:1025F0009FEFD92EE92E0895DD24EE24FF24002735
:10260000112708959F929924AA24BB2488E1D21609
:10261000E306F40628F0D21AE30AF40A089401C08B
:102620008894991CAA1CBB1CDD0CEE1CFF1C8A950F
:1026300071F7D92CEA2CFB2C9F9008950E94C810AA
:10264000D02C0E94C810E02C0E94C810F02C0E94D0
:10265000C810002D08950024744284F24E4E303884
:102660002D30392D323032322031353A30353A354D
:102670003800302E302E313900004C4F52412E425E
:1026800041530000417574003D002C204F46460028
:1026900024003A004C454556465700005665727373
:1026A000696F6E2046573A204665636861203C009A
:1026B0003E2C204172636869766F203C00003E002A
:1026C0005345544C45440000536520636F6E666962
:1026D00067757261207365746C6564206120000009
:1026E0005345544155540000536520636F6E66692D
:1026F0006775726F2074782041555420000053454F
:10270000544F464600004C4545415554000054780E
:102710002041757420004C45454F464600004F66E9
:10272000667365742041757420005345544E4557B7
:10273000000053652061637469766F2054782E2001
:102740004155542000002C0053657474696E672055
:102750004C6F5261204D6F6465004C6F5261204D8B
:102760006F64652053657400495251464C4147538C
:102770003A2000004F6F707320746865726520778F
:1027800061732061206372632070726F626C656D8B
:10279000212100005061636B657421205258204351
:1027A000757272656E7420416464723A20004E75D1
:1027B0006D626572206F6620627974657320726540
:1027C0006365697665643A2000004368616E6769F5
:1027D0006E6720746F205265636569766520436F6C
:1027E0006E74696E6F7573204D6F64650000436889
:1027F000616E67696E6720746F205472616E736DCD
:102800006974204D6F6465004368616E67696E6727
:1028100020746F20536C656570204D6F64650000F7
:102820004368616E67696E6720746F205374616ED0
:10283000646279204D6F64650000204D6F646520EF
:102840004368616E676520446F6E650020646F6E3B
:10285000652073656E64696E67210000706B747229
:102860007373695F7261772000004645495245479E
:10287000533A20004C31206E65676174697665209B
:1028800000004C3120706F73697469766520000018
:102890006C6F72616665693D20004D6F64656D33D4
:1028A00020006D6F64636F6E66313A2000006D6FBB
:1028B00064636F6E66323A2000004672665F4D5365
:1028C000423A20004672665F4D49443A2000467203
:1028D000665F4C53423A2000536574757020436F15
:1028E0006D706C6574650000534552313D00525364
:1028F000534920666F72204C6F72613A2000534E2C
:10290000523A20005061636B657420525353493A28
:0C2910002000526563697665643A20007F
:00000001FF
