:100000000C94340018950000189500001895000015
:10001000189500001895000018950000189500002C
:10002000189500001895000018950000189500001C
:10003000189500001895000018950000189500000C
:100040000C942501189500000C9498001895000058
:1000500018950000189500001895000018950000EC
:1000600018950000189500008FEF8DBFC0EBE8E2F7
:100070004E2E88E08EBFD8E0F8E05F2EA89584B7BA
:10008000082E877F84BF88E1992780936000909332
:100090006000EEEFF7E0A0E0B1E088278D933197A4
:1000A000E9F78DE48093C40080E08093C50088E187
:1000B0008093C1006624219A229A2A9A5298399AEA
:1000C00085E085BD80E084BD70916E0071607093A5
:1000D0006E0085E085BD7091C10070687093C100AD
:1000E0000E94CC10789489E080933402A4ECB2E0B2
:1000F000EEE4F7E20E944711E4ECF2E00E94D6122F
:10010000E2E5F7E20E949A130E944413EDE0F0E06A
:10011000A8ECB2E00E944712E8ECF2E00E94E11283
:10012000A1ECB2E0EDE0FF270E9447120C94900F83
:100130000F921F922F923F924F925F927F92AF92B7
:10014000BF920F931F932F933F934F935F936F93A0
:100150007F938F939F93AF93BF93CF93DF93EF934F
:10016000FF938FB78F93AEE2B4E08091C6008C937B
:1001700084E2482F00912E04041711F00C94CB0058
:100180007091D30270617093D302A1EAB3E0882723
:100190008C930C9408010D3011F00C94F000A3ED39
:1001A000B2E08C9184FB16F00C94EE007091D302B7
:1001B0007F7E7093D30280E0A1EAB3E00E94371003
:1001C0008D9388278C93E1EAF3E0AFE2B4E00E94DC
:1001D00042127091D30278607093D3020C9408019C
:1001E0000F3118F011F00C94F7000C940801A3EDF6
:1001F000B2E08C9184FB16F00C940801AEE2B4E0FE
:100200008C91A1EAB3E00E9437108D9388278C93DC
:100210008F918FBFFF91EF91DF91CF91BF91AF9100
:100220009F918F917F916F915F914F913F912F910E
:100230001F910F91BF90AF907F905F904F903F9034
:100240002F901F900F90189508950F921F922F9244
:100250003F924F925F927F92AF92BF920F931F9304
:100260002F933F934F935F936F937F938F939F93BE
:10027000AF93BF93CF93DF93EF93FF938FB78F939A
:100280007BE876BDACECB2E08C918F5F8C93ACECEC
:10029000B2E00C9148E00E947E128C930091CC0257
:1002A000003011F00C949201ADECB2E00C9140E200
:1002B0000E947E128C93ECEDFEE1A2EDB2E08C91F7
:1002C0009927AEECB2E00E944F118091CD02AEECC6
:1002D000B2E00E9474110E946A110C900822689486
:1002E00009F4E894A3EDB2E08C9187F98C93A3ED27
:1002F000B2E08C9187FB882780F9809580FBA3ED85
:10030000B2E08C9187F98C93A3EDB2E08C9187FBDE
:10031000A5E2B0E08C9181F98C93ADECB2E08C91C8
:100320008F5F8C93A4EDB2E08C918F5F8C93A4EDE2
:10033000B2E00C9144E60E947E128C930091D402AC
:10034000003011F00C941C027091D5027160709312
:10035000D502ADE0B1E00E94E30F81E0809311018E
:1003600000911101013018F011F00C941C02ADE065
:10037000B1E00D911D912D913C91A1E1B1E0AD90C5
:10038000BB24AFE2B2E0AA0CBB1CAA0CBB1CAA0D9A
:10039000BB1D4D915D916D917C910E947A11A9E0F8
:1003A000B1E00D931D932D933D93A9E0B1E00D9124
:1003B0001D912D913C91A1E1B1E0AD90BB24ABE248
:1003C000B2E0AA0CBB1CAA0CBB1CAA0DBB1D4D9114
:1003D0005D916D917C910E946010A9E0B1E00D9358
:1003E0001D932D933D930091110141E0041BA2E167
:1003F000B1E00C9340E050E060E070E0A9E0B1E0D3
:100400000D911D912D913C910E947F1111F00C9442
:10041000140280911201A3E3B2E00E9474110E94C1
:100420006A119C91982B9C93A1E1B1E08C918F5F14
:100430008C9310F40C94B001A3EDB2E08C9185FB89
:1004400016F00C943B02A6EDB2E00E94F00FA8ED6E
:10045000B2E04D915C91A6EDB2E00D911C910417B4
:10046000150711F00C9439027091D30270647093E7
:10047000D3020C94410280E090E0A6EDB2E08D93AF
:100480009C938F918FBFFF91EF91DF91CF91BF919F
:10049000AF919F918F917F916F915F914F913F911C
:1004A0002F911F910F91BF90AF907F905F904F90D1
:1004B0003F902F901F900F9018952998A0E1B8E0D9
:1004C000E6E5F7E20E9431110E943E100E944D10B5
:1004D000A0E1B8E0EAE6F7E20E9431110E943E1086
:1004E0000E944D10A0E1B8E0E2E7F7E20E9431116E
:1004F0000E943E100E944D1081E08093D20281E064
:100500008093000100910001013018F011F00C946B
:100510000D03E0E0F1E0A190BB24E0E0F0E0AA0CE4
:10052000BB1CAA0CBB1CEA0DFB1DA0E0B1E0AD900A
:10053000BB24ABE2B2E0AA0CBB1CAA0CBB1CAA0DEC
:10054000BB1D94E00E947712E0E0F1E0A190BB2493
:10055000E4E0F0E0AA0CBB1CAA0CBB1CEA0DFB1DDE
:10056000A0E0B1E0AD90BB24AFE2B2E0AA0CBB1CAE
:10057000AA0CBB1CAA0DBB1D94E00E947712EEE7EB
:10058000F7E20E944610E0E0F1E0A0E1B8E00E944E
:10059000A2110E943E10E2E8F7E20E944610E0E05D
:1005A000F1E0A190BB24EBE2F2E0AA0CBB1CAA0C88
:1005B000BB1CEA0DFB1DA0E1B8E00E9495110E9452
:1005C0003E10E4E8F7E20E944610E0E0F1E0A0E12E
:1005D000B8E00E94A2110E943E10E2E8F7E20E94F9
:1005E0004610E0E0F1E0A190BB24EFE2F2E0AA0CBB
:1005F000BB1CAA0CBB1CEA0DFB1DA0E1B8E00E94CD
:1006000095110E943E100E944D10A0E0B1E08C9127
:100610008F5F8C9310F40C9482020895EAE8F7E25D
:100620000E944610AFE2B4E00E9440100E944D10BC
:1006300081E0EFE2F4E006E00A93A5EFB1E00E946A
:100640004D12EFE2F4E09CE200E236E0ACEFB2E003
:100650000E94AA12AAEDB2E02C930091DA020030B7
:1006600018F011F00C9436030C94660381E080932B
:1006700000014091DA0200910001041718F011F016
:100680000C946603E0E0F1E0A0E1B8E00E94A21162
:100690000E943E10ECE8F7E20E944610A0E0B1E0B4
:1006A0000D91112741E250E00E940411ABEDB2E040
:1006B000A00FB11F0E9440100E944D10A0E0B1E0B9
:1006C0008C918F5F8C9310F40C943903ACEFB2E0F3
:1006D0000E948E12082F063011F00C944506ECEFA4
:1006E000F2E0A3E1B1E00E944212E3E1F1E0A3E114
:1006F000B1E00E945E118FEF8093E301A3E1B1E0CE
:10070000EEE8F7E20E94941211F00C94BE0380E030
:100710008093E301AAE1B1E0E6E9F7E20E9431113A
:10072000A5EFB1E0E6E5F7E20E943111E5EFF1E077
:10073000AAE1B1E00E9437100E944212AAE1B1E0A2
:100740000E943710EAEAF7E20E943111A5EFB1E00A
:10075000E2E7F7E20E943111E5EFF1E0AAE1B1E052
:100760000E9437100E944212AAE1B1E00E943710A5
:10077000E8EBF7E20E9431110C944306EAEBF7E252
:100780000E94941211F00C94F9030091DA020230E5
:1007900011F00C94F403ADE1B3E00E94E711A0E086
:1007A000B1E00C9300910001013110F00C94EF03C3
:1007B00080E08093E301AAE1B1E0E2ECF7E20E947D
:1007C0003111E0E0F1E0AAE1B1E00E9437100E94AF
:1007D000A211809100018093D2020C94F20385E073
:1007E0008093E3010C94F70384E08093E3010C947D
:1007F0004306EAEDF7E20E94941211F00C948A0489
:100800000091DA02033011F00C948504ADE1B3E0FD
:100810000E94E711A7EBB2E00C930091B702003001
:1008200080E010F009F081E08F930091B702023070
:1008300081E008F080E09F918923882311F40C94D3
:100840008004AEE3B3E00E94E711A5E0B1E00D93B0
:100850001D932D933D93A5E0B1E00D911D912D9138
:100860003C91A7EBB2E0AD90BB24ABE2B2E0AA0CA6
:10087000BB1CAA0CBB1CAA0DBB1D0D931D932D9375
:100880003C93E7EBF2E0A190BB24E0E0F0E0AA0C9F
:10089000BB1CAA0CBB1CEA0DFB1DA5E0B1E094E05B
:1008A0007BE70E94661280E08093E301AAE1B1E059
:1008B000E2EEF7E20E943111E7EBF2E0AAE1B1E0EB
:1008C0000E9437100E94A211AAE1B1E00E943710E5
:1008D000ECE8F7E20E943111E7EBF2E0A190BB24D3
:1008E000EBE2F2E0AA0CBB1CAA0CBB1CEA0DFB1D40
:1008F000AAE1B1E00E9437100E9495110C94830484
:1009000083E08093E3010C94880484E08093E30106
:100910000C944306E8EFF7E20E94941211F00C9455
:100920001B050091DA02033011F00C941605ADE1BD
:10093000B3E00E94E711A7EBB2E00C930091B7027D
:10094000003080E010F009F081E08F930091B70251
:10095000023081E008F080E09F918923882311F420
:100960000C941105AEE3B3E00E94E711A5E0B1E0FD
:100970000D931D932D933D93A5E0B1E00D911D9135
:100980002D913C91A7EBB2E0AD90BB24AFE2B2E079
:10099000AA0CBB1CAA0CBB1CAA0DBB1D0D931D935E
:1009A0002D933C93E7EBF2E0A190BB24E4E0F0E070
:1009B000AA0CBB1CAA0CBB1CEA0DFB1DA5E0B1E0F8
:1009C00094E07BE70E94661280E08093E301AAE155
:1009D000B1E0E2EEF7E20E943111E7EBF2E0AAE1CA
:1009E000B1E00E9437100E94A211AAE1B1E00E947A
:1009F0003710ECE8F7E20E943111E7EBF2E0A1904A
:100A0000BB24EFE2F2E0AA0CBB1CAA0CBB1CEA0D53
:100A1000FB1DAAE1B1E00E9437100E9495110C94D1
:100A2000140583E08093E3010C94190584E080931E
:100A3000E3010C944306E0E0F8E20E94941211F006
:100A40000C947A050091DA02023011F00C947505CD
:100A5000ADE1B3E00E94E711A7EBB2E00C93009187
:100A6000B702003080E010F009F081E08F93009130
:100A7000B702023081E008F080E09F91892388234B
:100A800011F40C947005AAE1B1E0E8E0F8E20E94EC
:100A90003111E7EBF2E0AAE1B1E00E9437100E94C9
:100AA000A211AAE1B1E00E943710ECE8F7E20E943F
:100AB0003111E7EBF2E0A190BB24EBE2F2E0AA0CEB
:100AC000BB1CAA0CBB1CEA0DFB1DAAE1B1E00E94F5
:100AD00037100E94951180E08093E3010C94730518
:100AE00083E08093E3010C94780584E08093E30134
:100AF0000C944306E0E1F8E20E94941211F00C9489
:100B0000D9050091DA02023011F00C94D405ADE160
:100B1000B3E00E94E711A7EBB2E00C930091B7029B
:100B2000003080E010F009F081E08F930091B7026F
:100B3000023081E008F080E09F918923882311F43E
:100B40000C94CF05AAE1B1E0E8E1F8E20E9431118E
:100B5000E7EBF2E0AAE1B1E00E9437100E94A21197
:100B6000AAE1B1E00E943710ECE8F7E20E943111EF
:100B7000E7EBF2E0A190BB24EFE2F2E0AA0CBB1C91
:100B8000AA0CBB1CEA0DFB1DAAE1B1E00E943710C4
:100B90000E94951180E08093E3010C94D20583E0DC
:100BA0008093E3010C94D70584E08093E3010C94D7
:100BB0004306E4E2F8E20E94941211F00C9440061D
:100BC0000091DA02023011F00C943B06ADE1B3E083
:100BD0000E94E711A7EBB2E00C930091B70200303E
:100BE00080E010F009F081E08F930091B7020230AD
:100BF00081E008F080E09F918923882311F40C9410
:100C0000360680E08093E3010091B70241E0041BC7
:100C1000A0E0B1E00C9380910001A3E3B2E00E9458
:100C200074110E946A119C91982B9C93AAE1B1E0E7
:100C3000ECE2F8E20E943111E7EBF2E0AAE1B1E068
:100C40000E9437100E94A211AAE1B1E00E94371061
:100C5000E0E4F8E20E943111AAE1B1E00E9437100D
:100C6000E3E3F2E00E942F120C94390683E08093B4
:100C7000E3010C943E0684E08093E3010C94430668
:100C800081E08093E3010C94480682E08093E301C5
:100C90000091E301003018F011F00C9451060C940F
:100CA0005D06E2E0FEE1A3EEB1E08C9199270E949F
:100CB0005611AAE1B1E00E943111AAE1B1E00E940F
:100CC00040100E944D1008952A98A881B9818C91F6
:100CD0008F778C9391E0A881B9810E94C21091E036
:100CE000AA81BB810E94B7102A9A08952A98AA81E6
:100CF000BB817C9170687C9391E0AA81BB810E944A
:100D0000C21091E0A881B9810E94C2102A9A089568
:100D100081E00E94FE1081E00E94FE1080E0AA8126
:100D2000BB818C93AE81BF818C91A881B9818C935A
:100D3000AE81BF810C91AC81BD814C91040FAC811F
:100D4000BD810C93AC81BD818C9181508C932A988C
:100D500091E0AA81BB810E94C210A881B9818C91C7
:100D6000AA81BB818C93AC81BD814C91AA81BB814E
:100D70000C91041718F011F00C94D10691E0AA819F
:100D8000BB81AD90BB24A5E3B2E0AA0DBB1D0E94C0
:100D9000B710AA81BB818C918F5F8C9310F40C9457
:100DA000B3062A9A82E0481A80E0580A24960895E9
:100DB00081E00E94FE1081E00E94FE1080E0AA8186
:100DC000BB818C93AE81BF810C91003011F00C94EB
:100DD000EF06AC81BD818C91A881B9818C93AE81E5
:100DE000BF810C91003018F011F00C94F9060C94AE
:100DF0000807AE81BF810C91AC81BD814C91040F7D
:100E0000A881B9810C93A881B9818C9181508C9370
:100E1000AA81BB817C9170687C932A9891E0AA8119
:100E2000BB810E94C210AE81BF818C91AA81BB811F
:100E30008C93A881B9814C91AA81BB810C91041734
:100E400018F011F00C94370791E0AA81BB81AD90A6
:100E5000BB24A6E7B2E0AA0DBB1D0E94C210AA8166
:100E6000BB818C918F5F8C9310F40C9419072A9A94
:100E700082E0481A80E0580A24960895E2E4F8E2F5
:100E80000E9446100E944D1088E0D2018C9381E0B0
:100E90000E94FE100E949008229681E00E94FA10A3
:100EA00080E991E00E94E31081E0D2018C9381E01F
:100EB0000E94FE1088E8D2018C9381E00E94FE100F
:100EC0000E947606249682E00E94FA10E4E5F8E299
:100ED0000E9446100E944D10089582E2D2018C9328
:100EE00081E00E94FE108AE0D2018C9381E00E9492
:100EF000FE100E947606249682E00E94FA108DE091
:100F0000D2018C9381E00E94FE10D201BA93AA9381
:100F10008FE0D2018C9381E00E94FE100E94640653
:100F2000249681E00E94FA1081E00E94FE100E9447
:100F30007606249682E00E94FA108DE8D2018C9306
:100F400081E00E94FE100E949008229681E00E949B
:100F5000FA10089581E00E94FE1081E00E94FE10C8
:100F600081E00E94FE1081E00E94FE1082E1D20129
:100F70008C9381E00E94FE1080E4D2018C9381E08A
:100F80000E94FE100E947606249682E00E94FA10CB
:100F9000AE81BF81BA93AA9382E1D2018C9381E0A2
:100FA0000E94FE100E946406249681E00E94FA10BE
:100FB000E2E6F8E20E944610D201EE81FF810E9433
:100FC0002F12D2010E9440100E944D10AE81BF81AD
:100FD0000C9105FB16F00C941108EEE6F8E20E9465
:100FE00046100E944D10EE81FF81A0E1B8E00E9402
:100FF000A2110E943E100E944D1082E1D2018C93FA
:1010000081E00E94FE1080E2D2018C9381E00E9478
:10101000FE100E947606249682E00E94FA100C943C
:101020008A08AC81BD81BA93AA9380E1D2018C93E6
:1010300081E00E94FE100E946406249681E00E94D6
:10104000FA10AA81BB81BA93AA9383E1D2018C934F
:1010500081E00E94FE100E946406249681E00E94B6
:10106000FA10EEE8F8E20E944610EC81FD81A0E162
:10107000B8E00E94A2110E943E10E8EAF8E20E9445
:101080004610EA81FB81A0E1B8E00E94A2110E9413
:101090003E100E944D108DE0D2018C9381E00E94A1
:1010A000FE10AE81BF818C91D2018C9381E00E94B1
:1010B000FE100E947606249682E00E94FA1080E0DC
:1010C000A881B9818C93AA81BB814C91A881B981F7
:1010D0000C91041710F00C948A08A881B981AD9086
:1010E000BB24A5E3B2E0AA0DBB1DBA93AA9380E08E
:1010F000D2018C9381E00E94FE100E946406249627
:1011000081E00E94FA10A881B9818C918F5F8C9345
:101110000C94630884E0481A80E0580A28960895E1
:1011200040913402A881B9810C91041711F00C94FC
:101130009B080C947E09A881B9810C910D3811F09F
:101140000C94E70889E0D2018C9381E00E94FE10A4
:1011500080E0D2018C9381E00E94FE100E9476060E
:10116000249682E00E94FA108CE0D2018C9381E0F8
:101170000E94FE1083E2D2018C9381E00E94FE1057
:101180000E947606249682E00E94FA1081E0D20145
:101190008C9381E00E94FE10AA81BB818C91D201C8
:1011A0008C9381E00E94FE100E947606249682E0D5
:1011B0000E94FA10A881B9818C9180933402E4ECEA
:1011C000F8E20E9446100E944D100C9478090B38EA
:1011D00011F00C9430098CE0D2018C9381E00E94D4
:1011E000FE1080E2D2018C9381E00E94FE100E94EA
:1011F0007606249682E00E94FA1089E0D2018C9350
:1012000081E00E94FE1089EFD2018C9381E00E9460
:10121000FE100E947606249682E00E94FA1081E079
:10122000D2018C9381E00E94FE10AA81BB818C9137
:10123000D2018C9381E00E94FE100E9476062496D3
:1012400082E00E94FA10A881B9818C9180933402C7
:10125000E8EEF8E20E9446100E944D100C947809C6
:10126000083011F00C94550981E0D2018C9381E093
:101270000E94FE10AA81BB818C91D2018C9381E0E7
:101280000E94FE100E947606249682E00E94FA10C8
:10129000A881B9818C9180933402E2E0F9E20E9446
:1012A00046100E944D100C947809093011F00C94EE
:1012B000780981E0D2018C9381E00E94FE10AA811E
:1012C000BB818C91D2018C9381E00E94FE100E9420
:1012D0007606249682E00E94FA10A881B9818C914A
:1012E00080933402EAE1F9E20E9446100E944D1018
:1012F000E4E3F9E20E9446100E944D10089581E057
:101300000E94FE1080E0A881B9818C9389E0D2010F
:101310008C9381E00E94FE100E949008229681E04A
:101320000E94FA108EE0D2018C9381E00E94FE10A0
:1013300080E0D2018C9381E00E94FE100E9476062C
:10134000249682E00E94FA108DE0D2018C9381E015
:101350000E94FE1080E0D2018C9381E00E94FE107A
:101360000E947606249682E00E94FA1081E0D20163
:101370008C9381E00E94FE108BE0D2018C9381E07F
:101380000E94FE100E94D806249682E00E94FA1065
:101390008BE8D2018C9381E00E94FE100E9490089D
:1013A000229681E00E94FA1088EC90E0A8EDB2E06D
:1013B0008D939C9380E090E0A6EDB2E08D939C939A
:1013C0007091D30270627093D3027091D3027F7BCD
:1013D0007093D302A9E2B0E00C9102FB81E00EF41D
:1013E00080E08F93A3EDB2E08C9186FB81E00EF458
:1013F00080E09F918923882311F40C94010A0C94B6
:10140000EA094A990C940C0AE6E4F9E20E944610B3
:101410000E944D100C94120AE6E5F9E20E94461073
:101420000E944D1082E1D2018C9381E00E94FE1057
:1014300088E0D2018C9381E00E94FE100E94760623
:10144000249682E00E94FA1081E0481A80E0580A4F
:101450002296089582E00E94FE1082E00E94FE1013
:1014600081E00E94FE1081E00E94FE1080E090E08A
:10147000AC81BD818D939C9380E090E0AE81BF8173
:101480008D939C9380E0AA81BB818C93AA81BB81C0
:101490000C91053010F00C947E0AA881B981BA93A2
:1014A000AA938BE1D2018C9381E00E94FE100E94EE
:1014B0006406249681E00E94FA100CE51FEFA881D3
:1014C000B9814D915527040F151FAE81BF810D9332
:1014D0001C93AC81BD810D911C91AE81BF814D915A
:1014E0005C91040F151FAC81BD810D931C93AA81E3
:1014F000BB818C918F5F8C930C94460AAC81BD812B
:101500000D911C9145E050E00E94FD0FAC81BD8122
:101510004D935C93AC81BD818D919C91A885B985DB
:101520008D939C9386E0481A80E0580A2896089587
:1015300081E00E94FE10A881B981BA93AA9389E143
:10154000D2018C9381E00E94FE100E9464062496D2
:1015500081E00E94FA10A881B9810C9107FB16F076
:101560000C94CF0AA881B9818C9180958C93A88125
:10157000B9818C918F5F8C9392E0A881B9810E9490
:101580003711A881B9810D9111274FEF5FEF0E94AC
:101590000411AA81BB810D931C930C94DC0A92E088
:1015A000A881B9810E943711A881B9818C91AA8143
:1015B000BB818D9388278C9381E0481A80E0580A7C
:1015C0002296089581E00E94FE1082E00E94FE10A3
:1015D00082E00E94FE10A881B981BA93AA930E946A
:1015E000980A2296A881B9810D911C91003050E093
:1015F00015071CF011F00C94FF0A0C943B0BAC8106
:10160000BD81BA93AA938AE1D2018C9381E00E94B2
:10161000FE100E946406249681E00E94FA10EEE516
:10162000F9E20E944610EC81FD81A0E1B8E00E9441
:10163000A2110E943E100E944D10AC81BD818C9180
:10164000AA81BB818D9388278C930CE51FEFAA811B
:10165000BB814D915C91040F151FAA81BB810D9335
:101660001C93AA81BB818D919C91AE81BF818D938A
:101670009C930C94790BAC81BD81BA93AA938AE1B7
:10168000D2018C9381E00E94FE100E946406249691
:1016900081E00E94FA10A881B9810D911C9144E06B
:1016A00050E00E94FD0FA881B9814D935C93AC81FD
:1016B000BD810D911127A881B9814D915C91040FD5
:1016C000151FA881B9810D931C930CE51FEFA8810C
:1016D000B9814D915C91040F151FAA81BB810D93B7
:1016E0001C93AA81BB818D919C91AE81BF818D930A
:1016F0009C9385E0481A80E0580A2696089581E078
:101700000E94FE1084E00E94FE1084E00E94FE1001
:10171000AC81BD81BA93AA9388E2D2018C9381E017
:101720000E94FE100E946406249681E00E94FA1036
:10173000ECE6F9E20E944610EC81FD81A0E1B8E000
:101740000E9416120E943E10AC81BD81BA93AA93EA
:1017500089E2D2018C9381E00E94FE100E9464060F
:10176000249681E00E94FA10EC81FD81A0E1B8E0AE
:101770000E9416120E943E10AC81BD81BA93AA93BA
:101780008AE2D2018C9381E00E94FE100E946406DE
:10179000249681E00E94FA10EC81FD81A0E1B8E07E
:1017A0000E9416120E943E100E944D10AC81BD8115
:1017B000BA93AA9388E2D2018C9381E00E94FE1032
:1017C0000E946406249681E00E94FA10AC81BD81DB
:1017D0000C9103FB16F00C94800CAC81BD810C9134
:1017E00011272227332740E050E061E070E00E949B
:1017F0000E11AA81BB810D931D932D933D93AC8156
:10180000BD81BA93AA9389E2D2018C9381E00E94B0
:10181000FE100E946406249681E00E94FA10AC81BA
:10182000BD810C9111272227332740E051E060E071
:1018300070E00E940E11A881B9810D931D932D9324
:101840003D93AA81BB810D911D912D913C91A88161
:10185000B9814D915D916D917C910E947A11AA811F
:10186000BB810D931D932D933D93AC81BD81BA93A4
:10187000AA938AE2D2018C9381E00E94FE100E941A
:101880006406249681E00E94FA10AA81BB810D9122
:101890001D912D913C91AC81BD814C9155276627BE
:1018A00077270E947A11AA81BB810D931D932D93F6
:1018B0003D93AA81BB8144E00E94DB0FAA81BB81DA
:1018C0000D911D912D913C9141E050E060E070E060
:1018D0000E947A11AA81BB810D931D932D933D9394
:1018E000E6E7F9E20E944610EA81FB81A0E1B8E058
:1018F0000E9495110E943E100E944D100C94FA0C0B
:10190000AC81BD810C9111272227332740E050E0A4
:1019100061E070E00E940E11AA81BB810D931D93BE
:101920002D933D93AC81BD81BA93AA9389E2D201F4
:101930008C9381E00E94FE100E946406249681E050
:101940000E94FA10AC81BD810C9111272227332708
:1019500040E051E060E070E00E940E11A881B98182
:101960000D931D932D933D93AA81BB810D911D91E4
:101970002D913C91A881B9814D915D916D917C91A2
:101980000E947A11AA81BB810D931D932D933D93E3
:10199000AC81BD81BA93AA938AE2D2018C9381E093
:1019A0000E94FE100E946406249681E00E94FA10B4
:1019B000AA81BB810D911D912D913C91AC81BD817E
:1019C0004C915527662777270E947A11AA81BB81FF
:1019D0000D931D932D933D93E4E8F9E20E94461088
:1019E000EA81FB81A0E1B8E00E9495110E943E10BF
:1019F0000E944D10AA81BB810D911D912D913C91AA
:101A000040E050E060E071E00E940E11AA81BB81CD
:101A10000D931D932D933D93AA81BB810D911D9133
:101A20002D913C9140E058E468EE71E00E94601016
:101A3000AA81BB814D935D936D937D93E2E9F9E2B9
:101A40000E944610EA81FB81A0E1B8E00E94951156
:101A50000E943E100E944D10AA81BB810D911D91E4
:101A60002D913C91AE81BF810D931D932D933C939D
:101A700089E0481A80E0580A26960895419884E142
:101A800090E00E94E310419A84E190E00E94E3100C
:101A900008950E943E0D0E943E0786E0D2018C937D
:101AA00081E00E94FE108091C302D2018C9381E0FC
:101AB0000E94FE100E947606249682E00E94FA1090
:101AC00087E0D2018C9381E00E94FE108091C202D7
:101AD000D2018C9381E00E94FE100E94760624962B
:101AE00082E00E94FA1088E0D2018C9381E00E948B
:101AF000FE108091C102D2018C9381E00E94FE1001
:101B00000E947606249682E00E94FA1089E0D201B3
:101B10008C9381E00E94FE1089EFD2018C9381E0CA
:101B20000E94FE100E947606249682E00E94FA101F
:101B30008BE0D2018C9381E00E94FE108BE0D201F9
:101B40008C9381E00E94FE100E947606249682E02B
:101B50000E94FA108CE0D2018C9381E00E94FE106A
:101B600083E2D2018C9381E00E94FE100E947606EF
:101B7000249682E00E94FA108DE1D2018C9381E0DC
:101B80000E94FE1082E7D2018C9381E00E94FE1039
:101B90000E947606249682E00E94FA108EE1D2011D
:101BA0008C9381E00E94FE1083ECD2018C9381E043
:101BB0000E94FE100E947606249682E00E94FA108F
:101BC00081E3D2018C9381E00E94FE1083ECD2016C
:101BD0008C9381E00E94FE100E947606249682E09B
:101BE0000E94FA1087E3D2018C9381E00E94FE10DC
:101BF0008AE0D2018C9381E00E94FE100E9476065A
:101C0000249682E00E94FA108FE1D2018C9381E049
:101C10000E94FE108FEFD2018C9381E00E94FE1093
:101C20000E947606249682E00E94FA1080E2D20199
:101C30008C9381E00E94FE1080E0D2018C9381E0C1
:101C40000E94FE100E947606249682E00E94FA10FE
:101C500081E2D2018C9381E00E94FE108CE0D201DF
:101C60008C9381E00E94FE100E947606249682E00A
:101C70000E94FA10A8EBB2E0BA93AA9386E2D201CE
:101C80008C9381E00E94FE100E946406249681E0FD
:101C90000E94FA10ECE9F9E20E944610D201E8EB4A
:101CA000F2E00E942F12D2010E9440100E944D10BB
:101CB000A8EBB2E0BA93AA938DE1D2018C9381E0B4
:101CC0000E94FE100E946406249681E00E94FA1091
:101CD000E4EAF9E20E944610D201E8EBF2E00E9449
:101CE0002F12D2010E9440100E944D10A8EBB2E0CA
:101CF000BA93AA938EE1D2018C9381E00E94FE10E8
:101D00000E946406249681E00E94FA10E0EBF9E25A
:101D10000E944610D201E8EBF2E00E942F12D2019D
:101D20000E9440100E944D10A8EBB2E0BA93AA9313
:101D300086E0D2018C9381E00E94FE100E9464062E
:101D4000249681E00E94FA10ECEBF9E20E94461022
:101D5000E8EBF2E0A0E1B8E00E9416120E943E100B
:101D60000E944D10A8EBB2E0BA93AA9387E0D2018B
:101D70008C9381E00E94FE100E946406249681E00C
:101D80000E94FA10E6ECF9E20E944610E8EBF2E05D
:101D9000A0E1B8E00E9416120E943E100E944D1071
:101DA000A8EBB2E0BA93AA9388E0D2018C9381E0C9
:101DB0000E94FE100E946406249681E00E94FA10A0
:101DC000E0EDF9E20E944610E8EBF2E0A0E1B8E0B5
:101DD0000E9416120E943E100E944D1089E0D2010E
:101DE0008C9381E00E94FE100E949008229681E070
:101DF0000E94FA10EAEDF9E20E9446100E944D108E
:101E000008954F4B00436F6D616E646F206E6F20BD
:101E10007265636F6E6F6369646F004C6F6E6769A4
:101E200074756420636F6D616E646F206E6F2076D1
:101E3000616C696461004E756D65726F2064652028
:101E40007573756172696F206E6F2076616C69645D
:101E50006F004E756D65726F2064652070617261F0
:101E60006D6574726F7320696E76616C69646F0062
:101E70004572726F72206C6F6E6769747564207042
:101E80006172616D6574726F2031004572726F729C
:101E9000206C6F6E676974756420706172616D6526
:101EA00074726F203200506172616D6574726F20C0
:101EB0006E6F2076616C69646F004552524F5238E4
:101EC000004552524F522053442E20496E74656E85
:101ED0007465206465206E7565766F0000000000F3
:101EE0000300000033000000330300003333000020
:101EF0003333030033C00C00FF0FFF0F555555550A
:101F000033333333777777770C00FCFFCC00FCFF5B
:101F1000CC0CFCFFCCCCFCFF0C00FCFFF0FFFFFF67
:101F20000E945D020E94490DE3E0F0E00E9457101C
:101F30000E946D07A3EDB2E08C9183FB16F00C9428
:101F4000B20F7091D302777F7093D302EAEEF9E279
:101F50000E944610AFE2B4E00E9440100E944D1073
:101F60000E940E03A3E3B2E00C9100FB16F00C9468
:101F7000D90F709133027E7F70933302AAE2B2E0F0
:101F80008C918F5F8C93A6E7B2E0E0EFF9E20E94BC
:101F90003111EAE2F2E0A6E7B2E00E9437100E94B7
:101FA000A211A6E7B2E00E9440100E944D100E94CC
:101FB0007F090C949A0FEA2FFB2F8D9180958193C6
:101FC0004A95D9F708950D911D912D913C910F5F80
:101FD0001F4F2F4F3F4F3C932E931E930E93089508
:101FE000ED91FC91EF5FFF4FFC93EE93089509D0C4
:101FF0000E94041100FC10D0089503D01ED001F8F7
:10200000F9CF0024E89457FF02C009D0689400F883
:102010000BD010F80124089502D009D008955095EE
:1020200040954F5F5F4F0895E89417FF089500951E
:1020300010950F5F1F4F68940895352F242FE89453
:10204000452B11F468940895512F402F0027112734
:1020500080E1440F551F001F111F021B130B41602D
:1020600018F4020F131F4E7F8A9599F708958F93E6
:102070008D918823E9F711978F910895A0E1B8E039
:102080008D91882311F00CD0FBCF08950E943F1151
:10209000802D11F005D0FACF08958DE001D08AE0AF
:1020A0000090C00005FEFCCF8093C600089588EE26
:1020B00093E089D03197D9F7089500FC05D00895B1
:1020C00030D005D001F8F9CF37D03FD00895842F14
:1020D000952FA62FB72FE894452B462B472B11F4AD
:1020E00068940895402F512F622F732F00271127D6
:1020F00022273327F0E2440F551F661F771F001F6A
:10210000111F221F331F081B190B2A0B3B0B4160A9
:1021100028F4080F191F2A1F3B1F4E7FFA9559F705
:1021200008950024E89477FF02C006D0689400F870
:1021300009D010F80124089512D04F5F5F4F6F4F00
:102140007F4F0895E89437FF0895009510952095E6
:1021500030950F5F1F4F2F4F3F4F68940895409564
:1021600050956095709508953197F1F708950E9404
:10217000D41080E00E94D6108D939A95D1F70E94DA
:10218000D51008950E94D4108D910E94D6109A9572
:10219000D9F70E94D5100895259A24982C9A239A4D
:1021A000229A82E58CBD0895089508958EBD009011
:1021B0004D0007FEFCCF8EB50895689462F808952F
:1021C000E89462F80895EF93FF93EE27E82BE92B4C
:1021D00031F0E8EBFBE03197F1F70197D1F7FF9190
:1021E000EF91089501911191219130810895481A3C
:1021F000590A0895481A8827580A089599275A9223
:102200004A92480E591E08950F92B801469F8001C8
:10221000479F100D569F100D0F9008950F921F921B
:102220002F92C801D901489F80014A9F90014B9F7E
:10223000202C499F100D211D321D5A9F202C589F84
:10224000100D211D321D599F200D311D689F200D3D
:10225000311D699F300D789F300D2F901F900F908A
:1022600008950E943F110D920020D9F708959030F3
:1022700029F08C9186959A95E9F78C930895C895E5
:1022800031960020089591E005C092E003C094E0EB
:1022900001C098E0F4DF0D929A95E1F70895880F58
:1022A000991F880F991FE80FF91FF1CF0196019729
:1022B00021F00E943F11E9F7FACF0895819104D0EF
:1022C0008D938823D9F70895813618F08B3708F459
:1022D0008F7D089591E0882321F08894991F8A9535
:1022E000E9F7892F90950895883018F01196885055
:1022F000FBCF0895040F151F261F371F08950417DD
:102300001507260737070895000F111F221F331FD7
:10231000089500951095209530950F5F1F4F2F4F12
:102320003F4F0895019110810FC00E94F2100EC01E
:102330000E94F21010C00191108117FF05C03FEFFD
:102340002FEF04C0008111272227332737FF03C056
:10235000E0DF8DE28D93CF92DF92EF92AA24BB242F
:10236000CC24DD24EE2440E2EAE0FF2755E093E3AD
:102370008081890F87FD9F7083FD907F891B8193EA
:102380005A95A9F7C1DFAA1CBB1CCC1CDD1CEE1C96
:102390004A9551F7E894EFE0FF2782910BD0EB309C
:1023A000E0F71EF068948A2D09D04D93EF90DF90EE
:1023B000CF900895982F829501D0892F8F70805DDE
:1023C00026F0803309F4089568948D9308950027CA
:1023D0001127222733271DD08A3328F4803318F0A1
:1023E00005D015D0F9CF0EF494CF089580538F9374
:1023F000402F512F622F732F87DF86DF7BDF84DF33
:102400008F919927080F191F291F391F08958D9142
:102410000895E894FCDF8032E9F38B32D9F38930F8
:10242000C9F38D3211F46894F2CF089541E003C0EE
:1024300042E001C044E0E40F8827F81F8291982F02
:10244000829506D0892F04D04A95C1F70C943F128B
:102450008F708A3008F0895F805D8D93089541E028
:10246000E40F8827F81F829138E098E1880F991FC0
:102470009D933A95D1F74A95B1F70C943F1288276E
:102480008D93089581918D938823E1F7089594E0C9
:1024900081918D939A95E1F70895099191919923EE
:1024A00059F08A95D9F73197002331F081918D93B6
:1024B0000A958823C9F70895E2CFF999FECFE1BDC7
:1024C000F2BD3196089591E001C092E07B3751F45E
:1024D0007FB7F894F2DF8D9180BDFA9AF99A9A95B8
:1024E000C9F77FBF7727089591E001C092E0E5DF4B
:1024F000F89A80B58D939A95D1F70895FF93881B2C
:10250000F9E0001FFA9511F4FF910895881F841BCC
:1025100018F4840F8894F5CF0894F3CF8FEF839548
:102520009D919923E1F70895689401C0E894AF93D1
:10253000BF938D9116F0919103C00E943F11902D91
:10254000891718F011F48823A1F7BF91AF9108956E
:10255000689401C0E8942227102F231709F40895E6
:1025600026F40E943F11802D01C08191803081F0BE
:10257000891741F070E08D931A9591F7239571E0DA
:102580001D93EACF01D0E8CF703011F0772708957E
:10259000772331F42395882713958D931A95E9F7BE
:1025A0000895D190E190F190019108952191319198
:1025B000419151910895502F2D2D3E2D4F2D612F7A
:1025C0000895EFDF992711278F2D880F80E8F82ACB
:1025D000802F881F08F41FEF41F08F57082F07FD49
:1025E00004C0003240F08FEF01C08827982FD82E0A
:1025F000E82EF82E09C08FE1801B082FF694E7948F
:10260000D79497950A95D1F7112351F09095D094CE
:10261000E094F09481E0980F8827D81EE81EF81EF9
:102620000F2DFE2CED2CD92E0895652F90E8440F28
:10263000551F5927990F47956078102F90E8FF0C88
:10264000001F0927990FF794107800380895FF0CA0
:1026500090E89027110F9795F794092F08952DEC86
:102660003CEC4CEC5DE366270FC09BDFA4DFDD2470
:10267000EE2490E8F92E0FE307C098DF05C022276B
:10268000332740E251E46627552351F1002381F1BD
:10269000CCDF71F11627005850580894050B18F438
:1026A00007FD03C025C007FD23C046953795279534
:1026B000F694E794D79422D0FF202AF0DD0CEE1C8C
:1026C000FF1C015073F09D2D969548F0DD203AF4E3
:1026D000EE202AF491E0D90E9927E91EF91EB7CF12
:1026E00007C09FE7092FF92A9FEFD92EE92E0895F9
:1026F000DD24EE24FF240027112708959F929924BA
:10270000AA24BB2488E1D216E306F40628F0D21AE4
:10271000E30AF40A089401C08894991CAA1CBB1C03
:10272000DD0CEE1CFF1C8A9571F7D92CEA2CFB2CD2
:102730009F9008950E943F11D02C0E943F11E02CE1
:102740000E943F11F02C0E943F11002D089500249B
:10275000744284F24E4E30382D30392D32303232C0
:102760002031353A30343A313400302E302E333780
:1027700000004C4F524154582E42415300004175C5
:1027800074003D002C204F46460024003A004C4582
:1027900045564657000056657273696F6E2046575E
:1027A0003A204665636861203C003E2C20417263FC
:1027B0006869766F203C00003E005345544C454408
:1027C0000000536520636F6E6669677572612073E0
:1027D00065746C6564206120000053455441555474
:1027E0000000536520636F6E66696775726F2074B1
:1027F00078204155542000005345544F4646000070
:102800004C454541555400005478204175742000D2
:102810004C45454F464600004F666673657420413F
:10282000757420005345544E455700005365206190
:10283000637469766F2054782E204155542000002F
:102840002C0053657474696E67204C6F5261204D83
:102850006F6465004C6F5261204D6F646520536555
:102860007400495251464C4147533A2000004F6F83
:1028700070732074686572652077617320612063CE
:1028800072632070726F626C656D2121000050616F
:10289000636B6574212052582043757272656E74A3
:1028A00020416464723A20004E756D626572206F3B
:1028B0006620627974657320726563656976656404
:1028C0003A2000004368616E67696E6720746F206C
:1028D0005265636569766520436F6E74696E6F75C6
:1028E00073204D6F646500004368616E67696E67B1
:1028F00020746F205472616E736D6974204D6F6423
:1029000065004368616E67696E6720746F20536C61
:10291000656570204D6F646500004368616E67698E
:102920006E6720746F205374616E646279204D6FFE
:1029300064650000204D6F6465204368616E6765C3
:1029400020446F6E650020646F6E652073656E6451
:10295000696E6721000074494D454F555400706BF6
:1029600074727373695F7261772000004645495243
:102970004547533A20004C31206E65676174697693
:10298000652000004C3120706F7369746976652092
:1029900000006C6F72616665693D20004D6F646573
:1029A0006D3320006D6F64636F6E66313A200000F6
:1029B0006D6F64636F6E66323A2000004672665F28
:1029C0004D53423A20004672665F4D49443A20001A
:1029D0004672665F4C53423A20005365747570200E
:1029E000436F6D706C6574650000534552313D0056
:0829F000242441424344450048
:00000001FF
